{
  "contractName": "Cappu",
  "abi": [
    {
      "inputs": [],
      "stateMutability": "nonpayable",
      "type": "constructor"
    },
    {
      "anonymous": false,
      "inputs": [
        {
          "indexed": true,
          "internalType": "address",
          "name": "owner",
          "type": "address"
        },
        {
          "indexed": true,
          "internalType": "address",
          "name": "approved",
          "type": "address"
        },
        {
          "indexed": true,
          "internalType": "uint256",
          "name": "tokenId",
          "type": "uint256"
        }
      ],
      "name": "Approval",
      "type": "event"
    },
    {
      "anonymous": false,
      "inputs": [
        {
          "indexed": true,
          "internalType": "address",
          "name": "owner",
          "type": "address"
        },
        {
          "indexed": true,
          "internalType": "address",
          "name": "operator",
          "type": "address"
        },
        {
          "indexed": false,
          "internalType": "bool",
          "name": "approved",
          "type": "bool"
        }
      ],
      "name": "ApprovalForAll",
      "type": "event"
    },
    {
      "anonymous": false,
      "inputs": [
        {
          "indexed": true,
          "internalType": "address",
          "name": "from",
          "type": "address"
        },
        {
          "indexed": true,
          "internalType": "address",
          "name": "to",
          "type": "address"
        },
        {
          "indexed": true,
          "internalType": "uint256",
          "name": "tokenId",
          "type": "uint256"
        }
      ],
      "name": "Transfer",
      "type": "event"
    },
    {
      "inputs": [
        {
          "internalType": "address",
          "name": "to",
          "type": "address"
        },
        {
          "internalType": "uint256",
          "name": "tokenId",
          "type": "uint256"
        }
      ],
      "name": "approve",
      "outputs": [],
      "stateMutability": "nonpayable",
      "type": "function"
    },
    {
      "inputs": [
        {
          "internalType": "address",
          "name": "owner",
          "type": "address"
        }
      ],
      "name": "balanceOf",
      "outputs": [
        {
          "internalType": "uint256",
          "name": "",
          "type": "uint256"
        }
      ],
      "stateMutability": "view",
      "type": "function",
      "constant": true
    },
    {
      "inputs": [
        {
          "internalType": "uint256",
          "name": "tokenId",
          "type": "uint256"
        }
      ],
      "name": "getApproved",
      "outputs": [
        {
          "internalType": "address",
          "name": "",
          "type": "address"
        }
      ],
      "stateMutability": "view",
      "type": "function",
      "constant": true
    },
    {
      "inputs": [
        {
          "internalType": "address",
          "name": "owner",
          "type": "address"
        },
        {
          "internalType": "address",
          "name": "operator",
          "type": "address"
        }
      ],
      "name": "isApprovedForAll",
      "outputs": [
        {
          "internalType": "bool",
          "name": "",
          "type": "bool"
        }
      ],
      "stateMutability": "view",
      "type": "function",
      "constant": true
    },
    {
      "inputs": [],
      "name": "myString",
      "outputs": [
        {
          "internalType": "string",
          "name": "",
          "type": "string"
        }
      ],
      "stateMutability": "view",
      "type": "function",
      "constant": true
    },
    {
      "inputs": [],
      "name": "name",
      "outputs": [
        {
          "internalType": "string",
          "name": "",
          "type": "string"
        }
      ],
      "stateMutability": "view",
      "type": "function",
      "constant": true
    },
    {
      "inputs": [
        {
          "internalType": "uint256",
          "name": "tokenId",
          "type": "uint256"
        }
      ],
      "name": "ownerOf",
      "outputs": [
        {
          "internalType": "address",
          "name": "",
          "type": "address"
        }
      ],
      "stateMutability": "view",
      "type": "function",
      "constant": true
    },
    {
      "inputs": [
        {
          "internalType": "address",
          "name": "from",
          "type": "address"
        },
        {
          "internalType": "address",
          "name": "to",
          "type": "address"
        },
        {
          "internalType": "uint256",
          "name": "tokenId",
          "type": "uint256"
        }
      ],
      "name": "safeTransferFrom",
      "outputs": [],
      "stateMutability": "nonpayable",
      "type": "function"
    },
    {
      "inputs": [
        {
          "internalType": "address",
          "name": "from",
          "type": "address"
        },
        {
          "internalType": "address",
          "name": "to",
          "type": "address"
        },
        {
          "internalType": "uint256",
          "name": "tokenId",
          "type": "uint256"
        },
        {
          "internalType": "bytes",
          "name": "_data",
          "type": "bytes"
        }
      ],
      "name": "safeTransferFrom",
      "outputs": [],
      "stateMutability": "nonpayable",
      "type": "function"
    },
    {
      "inputs": [
        {
          "internalType": "address",
          "name": "operator",
          "type": "address"
        },
        {
          "internalType": "bool",
          "name": "approved",
          "type": "bool"
        }
      ],
      "name": "setApprovalForAll",
      "outputs": [],
      "stateMutability": "nonpayable",
      "type": "function"
    },
    {
      "inputs": [
        {
          "internalType": "bytes4",
          "name": "interfaceId",
          "type": "bytes4"
        }
      ],
      "name": "supportsInterface",
      "outputs": [
        {
          "internalType": "bool",
          "name": "",
          "type": "bool"
        }
      ],
      "stateMutability": "view",
      "type": "function",
      "constant": true
    },
    {
      "inputs": [],
      "name": "symbol",
      "outputs": [
        {
          "internalType": "string",
          "name": "",
          "type": "string"
        }
      ],
      "stateMutability": "view",
      "type": "function",
      "constant": true
    },
    {
      "inputs": [
        {
          "internalType": "uint256",
          "name": "tokenId",
          "type": "uint256"
        }
      ],
      "name": "tokenURI",
      "outputs": [
        {
          "internalType": "string",
          "name": "",
          "type": "string"
        }
      ],
      "stateMutability": "view",
      "type": "function",
      "constant": true
    },
    {
      "inputs": [
        {
          "internalType": "address",
          "name": "from",
          "type": "address"
        },
        {
          "internalType": "address",
          "name": "to",
          "type": "address"
        },
        {
          "internalType": "uint256",
          "name": "tokenId",
          "type": "uint256"
        }
      ],
      "name": "transferFrom",
      "outputs": [],
      "stateMutability": "nonpayable",
      "type": "function"
    },
    {
      "inputs": [
        {
          "internalType": "string",
          "name": "x",
          "type": "string"
        }
      ],
      "name": "set",
      "outputs": [],
      "stateMutability": "nonpayable",
      "type": "function"
    },
    {
      "inputs": [
        {
          "internalType": "address",
          "name": "to",
          "type": "address"
        },
        {
          "internalType": "bytes",
          "name": "data",
          "type": "bytes"
        }
      ],
      "name": "mint",
      "outputs": [],
      "stateMutability": "nonpayable",
      "type": "function"
    }
  ],
  "bytecode": "0x60806040526040518060400160405280600b81526020017f48656c6c6f20576f726c64000000000000000000000000000000000000000000815250600690805190602001906200005192919062000106565b503480156200005f57600080fd5b506040518060400160405280600581526020017f43617070750000000000000000000000000000000000000000000000000000008152506040518060400160405280600481526020017f43415055000000000000000000000000000000000000000000000000000000008152508160009080519060200190620000e492919062000106565b508060019080519060200190620000fd92919062000106565b5050506200021b565b8280546200011490620001e5565b90600052602060002090601f01602090048101928262000138576000855562000184565b82601f106200015357805160ff191683800117855562000184565b8280016001018555821562000184579182015b828111156200018357825182559160200191906001019062000166565b5b50905062000193919062000197565b5090565b5b80821115620001b257600081600090555060010162000198565b5090565b7f4e487b7100000000000000000000000000000000000000000000000000000000600052602260045260246000fd5b60006002820490506001821680620001fe57607f821691505b60208210811415620002155762000214620001b6565b5b50919050565b6129f5806200022b6000396000f3fe608060405234801561001057600080fd5b50600436106101005760003560e01c80636352211e11610097578063b510391f11610066578063b510391f146102ab578063b88d4fde146102c7578063c87b56dd146102e3578063e985e9c51461031357610100565b80636352211e1461021157806370a082311461024157806395d89b4114610271578063a22cb4651461028f57610100565b806323b872dd116100d357806323b872dd1461019f57806342842e0e146101bb578063492bfa18146101d75780634ed3885e146101f557610100565b806301ffc9a71461010557806306fdde0314610135578063081812fc14610153578063095ea7b314610183575b600080fd5b61011f600480360381019061011a9190611832565b610343565b60405161012c919061187a565b60405180910390f35b61013d610425565b60405161014a919061192e565b60405180910390f35b61016d60048036038101906101689190611986565b6104b7565b60405161017a91906119f4565b60405180910390f35b61019d60048036038101906101989190611a3b565b61053c565b005b6101b960048036038101906101b49190611a7b565b610654565b005b6101d560048036038101906101d09190611a7b565b6106b4565b005b6101df6106d4565b6040516101ec919061192e565b60405180910390f35b61020f600480360381019061020a9190611c03565b610762565b005b61022b60048036038101906102269190611986565b61077c565b60405161023891906119f4565b60405180910390f35b61025b60048036038101906102569190611c4c565b61082e565b6040516102689190611c88565b60405180910390f35b6102796108e6565b604051610286919061192e565b60405180910390f35b6102a960048036038101906102a49190611ccf565b610978565b005b6102c560048036038101906102c09190611db0565b610af9565b005b6102e160048036038101906102dc9190611e0c565b610b18565b005b6102fd60048036038101906102f89190611986565b610b7a565b60405161030a919061192e565b60405180910390f35b61032d60048036038101906103289190611e8f565b610c21565b60405161033a919061187a565b60405180910390f35b60007f80ac58cd000000000000000000000000000000000000000000000000000000007bffffffffffffffffffffffffffffffffffffffffffffffffffffffff1916827bffffffffffffffffffffffffffffffffffffffffffffffffffffffff1916148061040e57507f5b5e139f000000000000000000000000000000000000000000000000000000007bffffffffffffffffffffffffffffffffffffffffffffffffffffffff1916827bffffffffffffffffffffffffffffffffffffffffffffffffffffffff1916145b8061041e575061041d82610cb5565b5b9050919050565b60606000805461043490611efe565b80601f016020809104026020016040519081016040528092919081815260200182805461046090611efe565b80156104ad5780601f10610482576101008083540402835291602001916104ad565b820191906000526020600020905b81548152906001019060200180831161049057829003601f168201915b5050505050905090565b60006104c282610d1f565b610501576040517f08c379a00000000000000000000000000000000000000000000000000000000081526004016104f890611fa2565b60405180910390fd5b6004600083815260200190815260200160002060009054906101000a900473ffffffffffffffffffffffffffffffffffffffff169050919050565b60006105478261077c565b90508073ffffffffffffffffffffffffffffffffffffffff168373ffffffffffffffffffffffffffffffffffffffff1614156105b8576040517f08c379a00000000000000000000000000000000000000000000000000000000081526004016105af90612034565b60405180910390fd5b8073ffffffffffffffffffffffffffffffffffffffff166105d7610d8b565b73ffffffffffffffffffffffffffffffffffffffff161480610606575061060581610600610d8b565b610c21565b5b610645576040517f08c379a000000000000000000000000000000000000000000000000000000000815260040161063c906120c6565b60405180910390fd5b61064f8383610d93565b505050565b61066561065f610d8b565b82610e4c565b6106a4576040517f08c379a000000000000000000000000000000000000000000000000000000000815260040161069b90612158565b60405180910390fd5b6106af838383610f2a565b505050565b6106cf83838360405180602001604052806000815250610b18565b505050565b600680546106e190611efe565b80601f016020809104026020016040519081016040528092919081815260200182805461070d90611efe565b801561075a5780601f1061072f5761010080835404028352916020019161075a565b820191906000526020600020905b81548152906001019060200180831161073d57829003601f168201915b505050505081565b8060069080519060200190610778929190611723565b5050565b6000806002600084815260200190815260200160002060009054906101000a900473ffffffffffffffffffffffffffffffffffffffff169050600073ffffffffffffffffffffffffffffffffffffffff168173ffffffffffffffffffffffffffffffffffffffff161415610825576040517f08c379a000000000000000000000000000000000000000000000000000000000815260040161081c906121ea565b60405180910390fd5b80915050919050565b60008073ffffffffffffffffffffffffffffffffffffffff168273ffffffffffffffffffffffffffffffffffffffff16141561089f576040517f08c379a00000000000000000000000000000000000000000000000000000000081526004016108969061227c565b60405180910390fd5b600360008373ffffffffffffffffffffffffffffffffffffffff1673ffffffffffffffffffffffffffffffffffffffff168152602001908152602001600020549050919050565b6060600180546108f590611efe565b80601f016020809104026020016040519081016040528092919081815260200182805461092190611efe565b801561096e5780601f106109435761010080835404028352916020019161096e565b820191906000526020600020905b81548152906001019060200180831161095157829003601f168201915b5050505050905090565b610980610d8b565b73ffffffffffffffffffffffffffffffffffffffff168273ffffffffffffffffffffffffffffffffffffffff1614156109ee576040517f08c379a00000000000000000000000000000000000000000000000000000000081526004016109e5906122e8565b60405180910390fd5b80600560006109fb610d8b565b73ffffffffffffffffffffffffffffffffffffffff1673ffffffffffffffffffffffffffffffffffffffff16815260200190815260200160002060008473ffffffffffffffffffffffffffffffffffffffff1673ffffffffffffffffffffffffffffffffffffffff16815260200190815260200160002060006101000a81548160ff0219169083151502179055508173ffffffffffffffffffffffffffffffffffffffff16610aa8610d8b565b73ffffffffffffffffffffffffffffffffffffffff167f17307eab39ab6107e8899845ad3d59bd9653f200f220920489ca2b5937696c3183604051610aed919061187a565b60405180910390a35050565b6000818051906020012060001c9050610b13838284611186565b505050565b610b29610b23610d8b565b83610e4c565b610b68576040517f08c379a0000000000000000000000000000000000000000000000000000000008152600401610b5f90612158565b60405180910390fd5b610b74848484846111e1565b50505050565b6060610b8582610d1f565b610bc4576040517f08c379a0000000000000000000000000000000000000000000000000000000008152600401610bbb9061237a565b60405180910390fd5b6000610bce61123d565b90506000815111610bee5760405180602001604052806000815250610c19565b80610bf884611254565b604051602001610c099291906123d6565b6040516020818303038152906040525b915050919050565b6000600560008473ffffffffffffffffffffffffffffffffffffffff1673ffffffffffffffffffffffffffffffffffffffff16815260200190815260200160002060008373ffffffffffffffffffffffffffffffffffffffff1673ffffffffffffffffffffffffffffffffffffffff16815260200190815260200160002060009054906101000a900460ff16905092915050565b60007f01ffc9a7000000000000000000000000000000000000000000000000000000007bffffffffffffffffffffffffffffffffffffffffffffffffffffffff1916827bffffffffffffffffffffffffffffffffffffffffffffffffffffffff1916149050919050565b60008073ffffffffffffffffffffffffffffffffffffffff166002600084815260200190815260200160002060009054906101000a900473ffffffffffffffffffffffffffffffffffffffff1673ffffffffffffffffffffffffffffffffffffffff1614159050919050565b600033905090565b816004600083815260200190815260200160002060006101000a81548173ffffffffffffffffffffffffffffffffffffffff021916908373ffffffffffffffffffffffffffffffffffffffff160217905550808273ffffffffffffffffffffffffffffffffffffffff16610e068361077c565b73ffffffffffffffffffffffffffffffffffffffff167f8c5be1e5ebec7d5bd14f71427d1e84f3dd0314c0f7b2291e5b200ac8c7c3b92560405160405180910390a45050565b6000610e5782610d1f565b610e96576040517f08c379a0000000000000000000000000000000000000000000000000000000008152600401610e8d9061246c565b60405180910390fd5b6000610ea18361077c565b90508073ffffffffffffffffffffffffffffffffffffffff168473ffffffffffffffffffffffffffffffffffffffff161480610f1057508373ffffffffffffffffffffffffffffffffffffffff16610ef8846104b7565b73ffffffffffffffffffffffffffffffffffffffff16145b80610f215750610f208185610c21565b5b91505092915050565b8273ffffffffffffffffffffffffffffffffffffffff16610f4a8261077c565b73ffffffffffffffffffffffffffffffffffffffff1614610fa0576040517f08c379a0000000000000000000000000000000000000000000000000000000008152600401610f97906124fe565b60405180910390fd5b600073ffffffffffffffffffffffffffffffffffffffff168273ffffffffffffffffffffffffffffffffffffffff161415611010576040517f08c379a000000000000000000000000000000000000000000000000000000000815260040161100790612590565b60405180910390fd5b61101b8383836113b5565b611026600082610d93565b6001600360008573ffffffffffffffffffffffffffffffffffffffff1673ffffffffffffffffffffffffffffffffffffffff168152602001908152602001600020600082825461107691906125df565b925050819055506001600360008473ffffffffffffffffffffffffffffffffffffffff1673ffffffffffffffffffffffffffffffffffffffff16815260200190815260200160002060008282546110cd9190612613565b92505081905550816002600083815260200190815260200160002060006101000a81548173ffffffffffffffffffffffffffffffffffffffff021916908373ffffffffffffffffffffffffffffffffffffffff160217905550808273ffffffffffffffffffffffffffffffffffffffff168473ffffffffffffffffffffffffffffffffffffffff167fddf252ad1be2c89b69c2b068fc378daa952ba7f163c4a11628f55a4df523b3ef60405160405180910390a4505050565b61119083836113ba565b61119d6000848484611588565b6111dc576040517f08c379a00000000000000000000000000000000000000000000000000000000081526004016111d3906126db565b60405180910390fd5b505050565b6111ec848484610f2a565b6111f884848484611588565b611237576040517f08c379a000000000000000000000000000000000000000000000000000000000815260040161122e906126db565b60405180910390fd5b50505050565b606060405180602001604052806000815250905090565b6060600082141561129c576040518060400160405280600181526020017f300000000000000000000000000000000000000000000000000000000000000081525090506113b0565b600082905060005b600082146112ce5780806112b7906126fb565b915050600a826112c79190612773565b91506112a4565b60008167ffffffffffffffff8111156112ea576112e9611ad8565b5b6040519080825280601f01601f19166020018201604052801561131c5781602001600182028036833780820191505090505b5090505b600085146113a95760018261133591906125df565b9150600a8561134491906127a4565b60306113509190612613565b60f81b818381518110611366576113656127d5565b5b60200101907effffffffffffffffffffffffffffffffffffffffffffffffffffffffffffff1916908160001a905350600a856113a29190612773565b9450611320565b8093505050505b919050565b505050565b600073ffffffffffffffffffffffffffffffffffffffff168273ffffffffffffffffffffffffffffffffffffffff16141561142a576040517f08c379a000000000000000000000000000000000000000000000000000000000815260040161142190612850565b60405180910390fd5b61143381610d1f565b15611473576040517f08c379a000000000000000000000000000000000000000000000000000000000815260040161146a906128bc565b60405180910390fd5b61147f600083836113b5565b6001600360008473ffffffffffffffffffffffffffffffffffffffff1673ffffffffffffffffffffffffffffffffffffffff16815260200190815260200160002060008282546114cf9190612613565b92505081905550816002600083815260200190815260200160002060006101000a81548173ffffffffffffffffffffffffffffffffffffffff021916908373ffffffffffffffffffffffffffffffffffffffff160217905550808273ffffffffffffffffffffffffffffffffffffffff16600073ffffffffffffffffffffffffffffffffffffffff167fddf252ad1be2c89b69c2b068fc378daa952ba7f163c4a11628f55a4df523b3ef60405160405180910390a45050565b60006115a98473ffffffffffffffffffffffffffffffffffffffff16611710565b15611703578373ffffffffffffffffffffffffffffffffffffffff1663150b7a026115d2610d8b565b8786866040518563ffffffff1660e01b81526004016115f49493929190612931565b6020604051808303816000875af192505050801561163057506040513d601f19601f8201168201806040525081019061162d9190612992565b60015b6116b3573d8060008114611660576040519150601f19603f3d011682016040523d82523d6000602084013e611665565b606091505b506000815114156116ab576040517f08c379a00000000000000000000000000000000000000000000000000000000081526004016116a2906126db565b60405180910390fd5b805181602001fd5b63150b7a0260e01b7bffffffffffffffffffffffffffffffffffffffffffffffffffffffff1916817bffffffffffffffffffffffffffffffffffffffffffffffffffffffff191614915050611708565b600190505b949350505050565b600080823b905060008111915050919050565b82805461172f90611efe565b90600052602060002090601f0160209004810192826117515760008555611798565b82601f1061176a57805160ff1916838001178555611798565b82800160010185558215611798579182015b8281111561179757825182559160200191906001019061177c565b5b5090506117a591906117a9565b5090565b5b808211156117c25760008160009055506001016117aa565b5090565b6000604051905090565b600080fd5b600080fd5b60007fffffffff0000000000000000000000000000000000000000000000000000000082169050919050565b61180f816117da565b811461181a57600080fd5b50565b60008135905061182c81611806565b92915050565b600060208284031215611848576118476117d0565b5b60006118568482850161181d565b91505092915050565b60008115159050919050565b6118748161185f565b82525050565b600060208201905061188f600083018461186b565b92915050565b600081519050919050565b600082825260208201905092915050565b60005b838110156118cf5780820151818401526020810190506118b4565b838111156118de576000848401525b50505050565b6000601f19601f8301169050919050565b600061190082611895565b61190a81856118a0565b935061191a8185602086016118b1565b611923816118e4565b840191505092915050565b6000602082019050818103600083015261194881846118f5565b905092915050565b6000819050919050565b61196381611950565b811461196e57600080fd5b50565b6000813590506119808161195a565b92915050565b60006020828403121561199c5761199b6117d0565b5b60006119aa84828501611971565b91505092915050565b600073ffffffffffffffffffffffffffffffffffffffff82169050919050565b60006119de826119b3565b9050919050565b6119ee816119d3565b82525050565b6000602082019050611a0960008301846119e5565b92915050565b611a18816119d3565b8114611a2357600080fd5b50565b600081359050611a3581611a0f565b92915050565b60008060408385031215611a5257611a516117d0565b5b6000611a6085828601611a26565b9250506020611a7185828601611971565b9150509250929050565b600080600060608486031215611a9457611a936117d0565b5b6000611aa286828701611a26565b9350506020611ab386828701611a26565b9250506040611ac486828701611971565b9150509250925092565b600080fd5b600080fd5b7f4e487b7100000000000000000000000000000000000000000000000000000000600052604160045260246000fd5b611b10826118e4565b810181811067ffffffffffffffff82111715611b2f57611b2e611ad8565b5b80604052505050565b6000611b426117c6565b9050611b4e8282611b07565b919050565b600067ffffffffffffffff821115611b6e57611b6d611ad8565b5b611b77826118e4565b9050602081019050919050565b82818337600083830152505050565b6000611ba6611ba184611b53565b611b38565b905082815260208101848484011115611bc257611bc1611ad3565b5b611bcd848285611b84565b509392505050565b600082601f830112611bea57611be9611ace565b5b8135611bfa848260208601611b93565b91505092915050565b600060208284031215611c1957611c186117d0565b5b600082013567ffffffffffffffff811115611c3757611c366117d5565b5b611c4384828501611bd5565b91505092915050565b600060208284031215611c6257611c616117d0565b5b6000611c7084828501611a26565b91505092915050565b611c8281611950565b82525050565b6000602082019050611c9d6000830184611c79565b92915050565b611cac8161185f565b8114611cb757600080fd5b50565b600081359050611cc981611ca3565b92915050565b60008060408385031215611ce657611ce56117d0565b5b6000611cf485828601611a26565b9250506020611d0585828601611cba565b9150509250929050565b600067ffffffffffffffff821115611d2a57611d29611ad8565b5b611d33826118e4565b9050602081019050919050565b6000611d53611d4e84611d0f565b611b38565b905082815260208101848484011115611d6f57611d6e611ad3565b5b611d7a848285611b84565b509392505050565b600082601f830112611d9757611d96611ace565b5b8135611da7848260208601611d40565b91505092915050565b60008060408385031215611dc757611dc66117d0565b5b6000611dd585828601611a26565b925050602083013567ffffffffffffffff811115611df657611df56117d5565b5b611e0285828601611d82565b9150509250929050565b60008060008060808587031215611e2657611e256117d0565b5b6000611e3487828801611a26565b9450506020611e4587828801611a26565b9350506040611e5687828801611971565b925050606085013567ffffffffffffffff811115611e7757611e766117d5565b5b611e8387828801611d82565b91505092959194509250565b60008060408385031215611ea657611ea56117d0565b5b6000611eb485828601611a26565b9250506020611ec585828601611a26565b9150509250929050565b7f4e487b7100000000000000000000000000000000000000000000000000000000600052602260045260246000fd5b60006002820490506001821680611f1657607f821691505b60208210811415611f2a57611f29611ecf565b5b50919050565b7f4552433732313a20617070726f76656420717565727920666f72206e6f6e657860008201527f697374656e7420746f6b656e0000000000000000000000000000000000000000602082015250565b6000611f8c602c836118a0565b9150611f9782611f30565b604082019050919050565b60006020820190508181036000830152611fbb81611f7f565b9050919050565b7f4552433732313a20617070726f76616c20746f2063757272656e74206f776e6560008201527f7200000000000000000000000000000000000000000000000000000000000000602082015250565b600061201e6021836118a0565b915061202982611fc2565b604082019050919050565b6000602082019050818103600083015261204d81612011565b9050919050565b7f4552433732313a20617070726f76652063616c6c6572206973206e6f74206f7760008201527f6e6572206e6f7220617070726f76656420666f7220616c6c0000000000000000602082015250565b60006120b06038836118a0565b91506120bb82612054565b604082019050919050565b600060208201905081810360008301526120df816120a3565b9050919050565b7f4552433732313a207472616e736665722063616c6c6572206973206e6f74206f60008201527f776e6572206e6f7220617070726f766564000000000000000000000000000000602082015250565b60006121426031836118a0565b915061214d826120e6565b604082019050919050565b6000602082019050818103600083015261217181612135565b9050919050565b7f4552433732313a206f776e657220717565727920666f72206e6f6e657869737460008201527f656e7420746f6b656e0000000000000000000000000000000000000000000000602082015250565b60006121d46029836118a0565b91506121df82612178565b604082019050919050565b60006020820190508181036000830152612203816121c7565b9050919050565b7f4552433732313a2062616c616e636520717565727920666f7220746865207a6560008201527f726f206164647265737300000000000000000000000000000000000000000000602082015250565b6000612266602a836118a0565b91506122718261220a565b604082019050919050565b6000602082019050818103600083015261229581612259565b9050919050565b7f4552433732313a20617070726f766520746f2063616c6c657200000000000000600082015250565b60006122d26019836118a0565b91506122dd8261229c565b602082019050919050565b60006020820190508181036000830152612301816122c5565b9050919050565b7f4552433732314d657461646174613a2055524920717565727920666f72206e6f60008201527f6e6578697374656e7420746f6b656e0000000000000000000000000000000000602082015250565b6000612364602f836118a0565b915061236f82612308565b604082019050919050565b6000602082019050818103600083015261239381612357565b9050919050565b600081905092915050565b60006123b082611895565b6123ba818561239a565b93506123ca8185602086016118b1565b80840191505092915050565b60006123e282856123a5565b91506123ee82846123a5565b91508190509392505050565b7f4552433732313a206f70657261746f7220717565727920666f72206e6f6e657860008201527f697374656e7420746f6b656e0000000000000000000000000000000000000000602082015250565b6000612456602c836118a0565b9150612461826123fa565b604082019050919050565b6000602082019050818103600083015261248581612449565b9050919050565b7f4552433732313a207472616e73666572206f6620746f6b656e2074686174206960008201527f73206e6f74206f776e0000000000000000000000000000000000000000000000602082015250565b60006124e86029836118a0565b91506124f38261248c565b604082019050919050565b60006020820190508181036000830152612517816124db565b9050919050565b7f4552433732313a207472616e7366657220746f20746865207a65726f2061646460008201527f7265737300000000000000000000000000000000000000000000000000000000602082015250565b600061257a6024836118a0565b91506125858261251e565b604082019050919050565b600060208201905081810360008301526125a98161256d565b9050919050565b7f4e487b7100000000000000000000000000000000000000000000000000000000600052601160045260246000fd5b60006125ea82611950565b91506125f583611950565b925082821015612608576126076125b0565b5b828203905092915050565b600061261e82611950565b915061262983611950565b9250827fffffffffffffffffffffffffffffffffffffffffffffffffffffffffffffffff0382111561265e5761265d6125b0565b5b828201905092915050565b7f4552433732313a207472616e7366657220746f206e6f6e20455243373231526560008201527f63656976657220696d706c656d656e7465720000000000000000000000000000602082015250565b60006126c56032836118a0565b91506126d082612669565b604082019050919050565b600060208201905081810360008301526126f4816126b8565b9050919050565b600061270682611950565b91507fffffffffffffffffffffffffffffffffffffffffffffffffffffffffffffffff821415612739576127386125b0565b5b600182019050919050565b7f4e487b7100000000000000000000000000000000000000000000000000000000600052601260045260246000fd5b600061277e82611950565b915061278983611950565b92508261279957612798612744565b5b828204905092915050565b60006127af82611950565b91506127ba83611950565b9250826127ca576127c9612744565b5b828206905092915050565b7f4e487b7100000000000000000000000000000000000000000000000000000000600052603260045260246000fd5b7f4552433732313a206d696e7420746f20746865207a65726f2061646472657373600082015250565b600061283a6020836118a0565b915061284582612804565b602082019050919050565b600060208201905081810360008301526128698161282d565b9050919050565b7f4552433732313a20746f6b656e20616c7265616479206d696e74656400000000600082015250565b60006128a6601c836118a0565b91506128b182612870565b602082019050919050565b600060208201905081810360008301526128d581612899565b9050919050565b600081519050919050565b600082825260208201905092915050565b6000612903826128dc565b61290d81856128e7565b935061291d8185602086016118b1565b612926816118e4565b840191505092915050565b600060808201905061294660008301876119e5565b61295360208301866119e5565b6129606040830185611c79565b818103606083015261297281846128f8565b905095945050505050565b60008151905061298c81611806565b92915050565b6000602082840312156129a8576129a76117d0565b5b60006129b68482850161297d565b9150509291505056fea26469706673582212206888beb5fdf53eb97a03de40d088906b329bf9a417207d5f2430b2ddafb9e63e64736f6c634300080a0033",
  "immutableReferences": {},
  "source": "// SPDX-License-Identifier: MIT\npragma solidity >=0.4.22 <0.9.0;\nimport \"@openzeppelin/contracts/token/ERC721/ERC721.sol\";\n\ncontract Cappu is ERC721 {\n    constructor() ERC721(\"Cappu\", \"CAPU\") {}\n\n    string public myString = \"Hello World\";\n\n    function set(string memory x) public {\n        myString = x;\n    }\n\n    function mint(address to, bytes memory data) public virtual {\n        uint256 tokenId = uint256(keccak256(data));\n        _safeMint(to, tokenId, data);\n    }\n}\n",
  "sourcePath": "/home/amin/Desktop/study/thesis/cappu/contracts/Cappu.sol",
  "compiler": {
    "name": "solc",
    "version": "0.8.10+commit.fc410830.Emscripten.clang"
  },
  "schemaVersion": "3.4.3",
  "updatedAt": "2021-11-26T21:52:57.653Z",
  "networkType": "ethereum",
  "devdoc": {
    "kind": "dev",
    "methods": {
      "approve(address,uint256)": {
        "details": "See {IERC721-approve}."
      },
      "balanceOf(address)": {
        "details": "See {IERC721-balanceOf}."
      },
      "getApproved(uint256)": {
        "details": "See {IERC721-getApproved}."
      },
      "isApprovedForAll(address,address)": {
        "details": "See {IERC721-isApprovedForAll}."
      },
      "name()": {
        "details": "See {IERC721Metadata-name}."
      },
      "ownerOf(uint256)": {
        "details": "See {IERC721-ownerOf}."
      },
      "safeTransferFrom(address,address,uint256)": {
        "details": "See {IERC721-safeTransferFrom}."
      },
      "safeTransferFrom(address,address,uint256,bytes)": {
        "details": "See {IERC721-safeTransferFrom}."
      },
      "setApprovalForAll(address,bool)": {
        "details": "See {IERC721-setApprovalForAll}."
      },
      "supportsInterface(bytes4)": {
        "details": "See {IERC165-supportsInterface}."
      },
      "symbol()": {
        "details": "See {IERC721Metadata-symbol}."
      },
      "tokenURI(uint256)": {
        "details": "See {IERC721Metadata-tokenURI}."
      },
      "transferFrom(address,address,uint256)": {
        "details": "See {IERC721-transferFrom}."
      }
    },
    "version": 1
  },
  "userdoc": {
    "kind": "user",
    "methods": {},
    "version": 1
  }
}