{
  "contractName": "Cappu",
  "abi": [
    {
      "inputs": [],
      "stateMutability": "nonpayable",
      "type": "constructor"
    },
    {
      "anonymous": false,
      "inputs": [
        {
          "indexed": true,
          "internalType": "address",
          "name": "owner",
          "type": "address"
        },
        {
          "indexed": true,
          "internalType": "address",
          "name": "approved",
          "type": "address"
        },
        {
          "indexed": true,
          "internalType": "uint256",
          "name": "tokenId",
          "type": "uint256"
        }
      ],
      "name": "Approval",
      "type": "event"
    },
    {
      "anonymous": false,
      "inputs": [
        {
          "indexed": true,
          "internalType": "address",
          "name": "owner",
          "type": "address"
        },
        {
          "indexed": true,
          "internalType": "address",
          "name": "operator",
          "type": "address"
        },
        {
          "indexed": false,
          "internalType": "bool",
          "name": "approved",
          "type": "bool"
        }
      ],
      "name": "ApprovalForAll",
      "type": "event"
    },
    {
      "anonymous": false,
      "inputs": [
        {
          "indexed": true,
          "internalType": "address",
          "name": "from",
          "type": "address"
        },
        {
          "indexed": true,
          "internalType": "address",
          "name": "to",
          "type": "address"
        },
        {
          "indexed": true,
          "internalType": "uint256",
          "name": "tokenId",
          "type": "uint256"
        }
      ],
      "name": "Transfer",
      "type": "event"
    },
    {
      "inputs": [
        {
          "internalType": "address",
          "name": "to",
          "type": "address"
        },
        {
          "internalType": "uint256",
          "name": "tokenId",
          "type": "uint256"
        }
      ],
      "name": "approve",
      "outputs": [],
      "stateMutability": "nonpayable",
      "type": "function"
    },
    {
      "inputs": [
        {
          "internalType": "address",
          "name": "owner",
          "type": "address"
        }
      ],
      "name": "balanceOf",
      "outputs": [
        {
          "internalType": "uint256",
          "name": "",
          "type": "uint256"
        }
      ],
      "stateMutability": "view",
      "type": "function",
      "constant": true
    },
    {
      "inputs": [
        {
          "internalType": "uint256",
          "name": "",
          "type": "uint256"
        }
      ],
      "name": "datas",
      "outputs": [
        {
          "internalType": "string",
          "name": "",
          "type": "string"
        }
      ],
      "stateMutability": "view",
      "type": "function",
      "constant": true
    },
    {
      "inputs": [
        {
          "internalType": "uint256",
          "name": "tokenId",
          "type": "uint256"
        }
      ],
      "name": "getApproved",
      "outputs": [
        {
          "internalType": "address",
          "name": "",
          "type": "address"
        }
      ],
      "stateMutability": "view",
      "type": "function",
      "constant": true
    },
    {
      "inputs": [
        {
          "internalType": "address",
          "name": "owner",
          "type": "address"
        },
        {
          "internalType": "address",
          "name": "operator",
          "type": "address"
        }
      ],
      "name": "isApprovedForAll",
      "outputs": [
        {
          "internalType": "bool",
          "name": "",
          "type": "bool"
        }
      ],
      "stateMutability": "view",
      "type": "function",
      "constant": true
    },
    {
      "inputs": [],
      "name": "myString",
      "outputs": [
        {
          "internalType": "string",
          "name": "",
          "type": "string"
        }
      ],
      "stateMutability": "view",
      "type": "function",
      "constant": true
    },
    {
      "inputs": [],
      "name": "name",
      "outputs": [
        {
          "internalType": "string",
          "name": "",
          "type": "string"
        }
      ],
      "stateMutability": "view",
      "type": "function",
      "constant": true
    },
    {
      "inputs": [
        {
          "internalType": "uint256",
          "name": "tokenId",
          "type": "uint256"
        }
      ],
      "name": "ownerOf",
      "outputs": [
        {
          "internalType": "address",
          "name": "",
          "type": "address"
        }
      ],
      "stateMutability": "view",
      "type": "function",
      "constant": true
    },
    {
      "inputs": [
        {
          "internalType": "address",
          "name": "from",
          "type": "address"
        },
        {
          "internalType": "address",
          "name": "to",
          "type": "address"
        },
        {
          "internalType": "uint256",
          "name": "tokenId",
          "type": "uint256"
        }
      ],
      "name": "safeTransferFrom",
      "outputs": [],
      "stateMutability": "nonpayable",
      "type": "function"
    },
    {
      "inputs": [
        {
          "internalType": "address",
          "name": "from",
          "type": "address"
        },
        {
          "internalType": "address",
          "name": "to",
          "type": "address"
        },
        {
          "internalType": "uint256",
          "name": "tokenId",
          "type": "uint256"
        },
        {
          "internalType": "bytes",
          "name": "_data",
          "type": "bytes"
        }
      ],
      "name": "safeTransferFrom",
      "outputs": [],
      "stateMutability": "nonpayable",
      "type": "function"
    },
    {
      "inputs": [
        {
          "internalType": "address",
          "name": "operator",
          "type": "address"
        },
        {
          "internalType": "bool",
          "name": "approved",
          "type": "bool"
        }
      ],
      "name": "setApprovalForAll",
      "outputs": [],
      "stateMutability": "nonpayable",
      "type": "function"
    },
    {
      "inputs": [
        {
          "internalType": "bytes4",
          "name": "interfaceId",
          "type": "bytes4"
        }
      ],
      "name": "supportsInterface",
      "outputs": [
        {
          "internalType": "bool",
          "name": "",
          "type": "bool"
        }
      ],
      "stateMutability": "view",
      "type": "function",
      "constant": true
    },
    {
      "inputs": [],
      "name": "symbol",
      "outputs": [
        {
          "internalType": "string",
          "name": "",
          "type": "string"
        }
      ],
      "stateMutability": "view",
      "type": "function",
      "constant": true
    },
    {
      "inputs": [
        {
          "internalType": "uint256",
          "name": "tokenId",
          "type": "uint256"
        }
      ],
      "name": "tokenURI",
      "outputs": [
        {
          "internalType": "string",
          "name": "",
          "type": "string"
        }
      ],
      "stateMutability": "view",
      "type": "function",
      "constant": true
    },
    {
      "inputs": [
        {
          "internalType": "address",
          "name": "from",
          "type": "address"
        },
        {
          "internalType": "address",
          "name": "to",
          "type": "address"
        },
        {
          "internalType": "uint256",
          "name": "tokenId",
          "type": "uint256"
        }
      ],
      "name": "transferFrom",
      "outputs": [],
      "stateMutability": "nonpayable",
      "type": "function"
    },
    {
      "inputs": [
        {
          "internalType": "string",
          "name": "x",
          "type": "string"
        }
      ],
      "name": "set",
      "outputs": [],
      "stateMutability": "nonpayable",
      "type": "function"
    },
    {
      "inputs": [
        {
          "internalType": "string",
          "name": "data",
          "type": "string"
        }
      ],
      "name": "mint",
      "outputs": [],
      "stateMutability": "nonpayable",
      "type": "function"
    }
  ],
  "bytecode": "0x60806040526040518060400160405280600b81526020017f48656c6c6f20576f726c64000000000000000000000000000000000000000000815250600890805190602001906200005192919062000106565b503480156200005f57600080fd5b506040518060400160405280600581526020017f43617070750000000000000000000000000000000000000000000000000000008152506040518060400160405280600481526020017f43415055000000000000000000000000000000000000000000000000000000008152508160009080519060200190620000e492919062000106565b508060019080519060200190620000fd92919062000106565b5050506200021b565b8280546200011490620001e5565b90600052602060002090601f01602090048101928262000138576000855562000184565b82601f106200015357805160ff191683800117855562000184565b8280016001018555821562000184579182015b828111156200018357825182559160200191906001019062000166565b5b50905062000193919062000197565b5090565b5b80821115620001b257600081600090555060010162000198565b5090565b7f4e487b7100000000000000000000000000000000000000000000000000000000600052602260045260246000fd5b60006002820490506001821680620001fe57607f821691505b60208210811415620002155762000214620001b6565b5b50919050565b612a60806200022b6000396000f3fe608060405234801561001057600080fd5b506004361061010b5760003560e01c80636352211e116100a2578063b88d4fde11610071578063b88d4fde146102b6578063c0a094fd146102d2578063c87b56dd14610302578063d85d3d2714610332578063e985e9c51461034e5761010b565b80636352211e1461021c57806370a082311461024c57806395d89b411461027c578063a22cb4651461029a5761010b565b806323b872dd116100de57806323b872dd146101aa57806342842e0e146101c6578063492bfa18146101e25780634ed3885e146102005761010b565b806301ffc9a71461011057806306fdde0314610140578063081812fc1461015e578063095ea7b31461018e575b600080fd5b61012a600480360381019061012591906118f9565b61037e565b6040516101379190611941565b60405180910390f35b610148610460565b60405161015591906119f5565b60405180910390f35b61017860048036038101906101739190611a4d565b6104f2565b6040516101859190611abb565b60405180910390f35b6101a860048036038101906101a39190611b02565b610577565b005b6101c460048036038101906101bf9190611b42565b61068f565b005b6101e060048036038101906101db9190611b42565b6106ef565b005b6101ea61070f565b6040516101f791906119f5565b60405180910390f35b61021a60048036038101906102159190611cca565b61079d565b005b61023660048036038101906102319190611a4d565b6107b7565b6040516102439190611abb565b60405180910390f35b61026660048036038101906102619190611d13565b610869565b6040516102739190611d4f565b60405180910390f35b610284610921565b60405161029191906119f5565b60405180910390f35b6102b460048036038101906102af9190611d96565b6109b3565b005b6102d060048036038101906102cb9190611e77565b610b34565b005b6102ec60048036038101906102e79190611a4d565b610b96565b6040516102f991906119f5565b60405180910390f35b61031c60048036038101906103179190611a4d565b610c42565b60405161032991906119f5565b60405180910390f35b61034c60048036038101906103479190611cca565b610ce9565b005b61036860048036038101906103639190611efa565b610d43565b6040516103759190611941565b60405180910390f35b60007f80ac58cd000000000000000000000000000000000000000000000000000000007bffffffffffffffffffffffffffffffffffffffffffffffffffffffff1916827bffffffffffffffffffffffffffffffffffffffffffffffffffffffff1916148061044957507f5b5e139f000000000000000000000000000000000000000000000000000000007bffffffffffffffffffffffffffffffffffffffffffffffffffffffff1916827bffffffffffffffffffffffffffffffffffffffffffffffffffffffff1916145b80610459575061045882610dd7565b5b9050919050565b60606000805461046f90611f69565b80601f016020809104026020016040519081016040528092919081815260200182805461049b90611f69565b80156104e85780601f106104bd576101008083540402835291602001916104e8565b820191906000526020600020905b8154815290600101906020018083116104cb57829003601f168201915b5050505050905090565b60006104fd82610e41565b61053c576040517f08c379a00000000000000000000000000000000000000000000000000000000081526004016105339061200d565b60405180910390fd5b6004600083815260200190815260200160002060009054906101000a900473ffffffffffffffffffffffffffffffffffffffff169050919050565b6000610582826107b7565b90508073ffffffffffffffffffffffffffffffffffffffff168373ffffffffffffffffffffffffffffffffffffffff1614156105f3576040517f08c379a00000000000000000000000000000000000000000000000000000000081526004016105ea9061209f565b60405180910390fd5b8073ffffffffffffffffffffffffffffffffffffffff16610612610ead565b73ffffffffffffffffffffffffffffffffffffffff16148061064157506106408161063b610ead565b610d43565b5b610680576040517f08c379a000000000000000000000000000000000000000000000000000000000815260040161067790612131565b60405180910390fd5b61068a8383610eb5565b505050565b6106a061069a610ead565b82610f6e565b6106df576040517f08c379a00000000000000000000000000000000000000000000000000000000081526004016106d6906121c3565b60405180910390fd5b6106ea83838361104c565b505050565b61070a83838360405180602001604052806000815250610b34565b505050565b6008805461071c90611f69565b80601f016020809104026020016040519081016040528092919081815260200182805461074890611f69565b80156107955780601f1061076a57610100808354040283529160200191610795565b820191906000526020600020905b81548152906001019060200180831161077857829003601f168201915b505050505081565b80600890805190602001906107b39291906117ea565b5050565b6000806002600084815260200190815260200160002060009054906101000a900473ffffffffffffffffffffffffffffffffffffffff169050600073ffffffffffffffffffffffffffffffffffffffff168173ffffffffffffffffffffffffffffffffffffffff161415610860576040517f08c379a000000000000000000000000000000000000000000000000000000000815260040161085790612255565b60405180910390fd5b80915050919050565b60008073ffffffffffffffffffffffffffffffffffffffff168273ffffffffffffffffffffffffffffffffffffffff1614156108da576040517f08c379a00000000000000000000000000000000000000000000000000000000081526004016108d1906122e7565b60405180910390fd5b600360008373ffffffffffffffffffffffffffffffffffffffff1673ffffffffffffffffffffffffffffffffffffffff168152602001908152602001600020549050919050565b60606001805461093090611f69565b80601f016020809104026020016040519081016040528092919081815260200182805461095c90611f69565b80156109a95780601f1061097e576101008083540402835291602001916109a9565b820191906000526020600020905b81548152906001019060200180831161098c57829003601f168201915b5050505050905090565b6109bb610ead565b73ffffffffffffffffffffffffffffffffffffffff168273ffffffffffffffffffffffffffffffffffffffff161415610a29576040517f08c379a0000000000000000000000000000000000000000000000000000000008152600401610a2090612353565b60405180910390fd5b8060056000610a36610ead565b73ffffffffffffffffffffffffffffffffffffffff1673ffffffffffffffffffffffffffffffffffffffff16815260200190815260200160002060008473ffffffffffffffffffffffffffffffffffffffff1673ffffffffffffffffffffffffffffffffffffffff16815260200190815260200160002060006101000a81548160ff0219169083151502179055508173ffffffffffffffffffffffffffffffffffffffff16610ae3610ead565b73ffffffffffffffffffffffffffffffffffffffff167f17307eab39ab6107e8899845ad3d59bd9653f200f220920489ca2b5937696c3183604051610b289190611941565b60405180910390a35050565b610b45610b3f610ead565b83610f6e565b610b84576040517f08c379a0000000000000000000000000000000000000000000000000000000008152600401610b7b906121c3565b60405180910390fd5b610b90848484846112a8565b50505050565b60068181548110610ba657600080fd5b906000526020600020016000915090508054610bc190611f69565b80601f0160208091040260200160405190810160405280929190818152602001828054610bed90611f69565b8015610c3a5780601f10610c0f57610100808354040283529160200191610c3a565b820191906000526020600020905b815481529060010190602001808311610c1d57829003601f168201915b505050505081565b6060610c4d82610e41565b610c8c576040517f08c379a0000000000000000000000000000000000000000000000000000000008152600401610c83906123e5565b60405180910390fd5b6000610c96611304565b90506000815111610cb65760405180602001604052806000815250610ce1565b80610cc08461131b565b604051602001610cd1929190612441565b6040516020818303038152906040525b915050919050565b600681908060018154018082558091505060019003906000526020600020016000909190919091509080519060200190610d249291906117ea565b50610d40336001600680549050610d3b9190612494565b61147c565b50565b6000600560008473ffffffffffffffffffffffffffffffffffffffff1673ffffffffffffffffffffffffffffffffffffffff16815260200190815260200160002060008373ffffffffffffffffffffffffffffffffffffffff1673ffffffffffffffffffffffffffffffffffffffff16815260200190815260200160002060009054906101000a900460ff16905092915050565b60007f01ffc9a7000000000000000000000000000000000000000000000000000000007bffffffffffffffffffffffffffffffffffffffffffffffffffffffff1916827bffffffffffffffffffffffffffffffffffffffffffffffffffffffff1916149050919050565b60008073ffffffffffffffffffffffffffffffffffffffff166002600084815260200190815260200160002060009054906101000a900473ffffffffffffffffffffffffffffffffffffffff1673ffffffffffffffffffffffffffffffffffffffff1614159050919050565b600033905090565b816004600083815260200190815260200160002060006101000a81548173ffffffffffffffffffffffffffffffffffffffff021916908373ffffffffffffffffffffffffffffffffffffffff160217905550808273ffffffffffffffffffffffffffffffffffffffff16610f28836107b7565b73ffffffffffffffffffffffffffffffffffffffff167f8c5be1e5ebec7d5bd14f71427d1e84f3dd0314c0f7b2291e5b200ac8c7c3b92560405160405180910390a45050565b6000610f7982610e41565b610fb8576040517f08c379a0000000000000000000000000000000000000000000000000000000008152600401610faf9061253a565b60405180910390fd5b6000610fc3836107b7565b90508073ffffffffffffffffffffffffffffffffffffffff168473ffffffffffffffffffffffffffffffffffffffff16148061103257508373ffffffffffffffffffffffffffffffffffffffff1661101a846104f2565b73ffffffffffffffffffffffffffffffffffffffff16145b8061104357506110428185610d43565b5b91505092915050565b8273ffffffffffffffffffffffffffffffffffffffff1661106c826107b7565b73ffffffffffffffffffffffffffffffffffffffff16146110c2576040517f08c379a00000000000000000000000000000000000000000000000000000000081526004016110b9906125cc565b60405180910390fd5b600073ffffffffffffffffffffffffffffffffffffffff168273ffffffffffffffffffffffffffffffffffffffff161415611132576040517f08c379a00000000000000000000000000000000000000000000000000000000081526004016111299061265e565b60405180910390fd5b61113d83838361164a565b611148600082610eb5565b6001600360008573ffffffffffffffffffffffffffffffffffffffff1673ffffffffffffffffffffffffffffffffffffffff16815260200190815260200160002060008282546111989190612494565b925050819055506001600360008473ffffffffffffffffffffffffffffffffffffffff1673ffffffffffffffffffffffffffffffffffffffff16815260200190815260200160002060008282546111ef919061267e565b92505081905550816002600083815260200190815260200160002060006101000a81548173ffffffffffffffffffffffffffffffffffffffff021916908373ffffffffffffffffffffffffffffffffffffffff160217905550808273ffffffffffffffffffffffffffffffffffffffff168473ffffffffffffffffffffffffffffffffffffffff167fddf252ad1be2c89b69c2b068fc378daa952ba7f163c4a11628f55a4df523b3ef60405160405180910390a4505050565b6112b384848461104c565b6112bf8484848461164f565b6112fe576040517f08c379a00000000000000000000000000000000000000000000000000000000081526004016112f590612746565b60405180910390fd5b50505050565b606060405180602001604052806000815250905090565b60606000821415611363576040518060400160405280600181526020017f30000000000000000000000000000000000000000000000000000000000000008152509050611477565b600082905060005b6000821461139557808061137e90612766565b915050600a8261138e91906127de565b915061136b565b60008167ffffffffffffffff8111156113b1576113b0611b9f565b5b6040519080825280601f01601f1916602001820160405280156113e35781602001600182028036833780820191505090505b5090505b60008514611470576001826113fc9190612494565b9150600a8561140b919061280f565b6030611417919061267e565b60f81b81838151811061142d5761142c612840565b5b60200101907effffffffffffffffffffffffffffffffffffffffffffffffffffffffffffff1916908160001a905350600a8561146991906127de565b94506113e7565b8093505050505b919050565b600073ffffffffffffffffffffffffffffffffffffffff168273ffffffffffffffffffffffffffffffffffffffff1614156114ec576040517f08c379a00000000000000000000000000000000000000000000000000000000081526004016114e3906128bb565b60405180910390fd5b6114f581610e41565b15611535576040517f08c379a000000000000000000000000000000000000000000000000000000000815260040161152c90612927565b60405180910390fd5b6115416000838361164a565b6001600360008473ffffffffffffffffffffffffffffffffffffffff1673ffffffffffffffffffffffffffffffffffffffff1681526020019081526020016000206000828254611591919061267e565b92505081905550816002600083815260200190815260200160002060006101000a81548173ffffffffffffffffffffffffffffffffffffffff021916908373ffffffffffffffffffffffffffffffffffffffff160217905550808273ffffffffffffffffffffffffffffffffffffffff16600073ffffffffffffffffffffffffffffffffffffffff167fddf252ad1be2c89b69c2b068fc378daa952ba7f163c4a11628f55a4df523b3ef60405160405180910390a45050565b505050565b60006116708473ffffffffffffffffffffffffffffffffffffffff166117d7565b156117ca578373ffffffffffffffffffffffffffffffffffffffff1663150b7a02611699610ead565b8786866040518563ffffffff1660e01b81526004016116bb949392919061299c565b6020604051808303816000875af19250505080156116f757506040513d601f19601f820116820180604052508101906116f491906129fd565b60015b61177a573d8060008114611727576040519150601f19603f3d011682016040523d82523d6000602084013e61172c565b606091505b50600081511415611772576040517f08c379a000000000000000000000000000000000000000000000000000000000815260040161176990612746565b60405180910390fd5b805181602001fd5b63150b7a0260e01b7bffffffffffffffffffffffffffffffffffffffffffffffffffffffff1916817bffffffffffffffffffffffffffffffffffffffffffffffffffffffff1916149150506117cf565b600190505b949350505050565b600080823b905060008111915050919050565b8280546117f690611f69565b90600052602060002090601f016020900481019282611818576000855561185f565b82601f1061183157805160ff191683800117855561185f565b8280016001018555821561185f579182015b8281111561185e578251825591602001919060010190611843565b5b50905061186c9190611870565b5090565b5b80821115611889576000816000905550600101611871565b5090565b6000604051905090565b600080fd5b600080fd5b60007fffffffff0000000000000000000000000000000000000000000000000000000082169050919050565b6118d6816118a1565b81146118e157600080fd5b50565b6000813590506118f3816118cd565b92915050565b60006020828403121561190f5761190e611897565b5b600061191d848285016118e4565b91505092915050565b60008115159050919050565b61193b81611926565b82525050565b60006020820190506119566000830184611932565b92915050565b600081519050919050565b600082825260208201905092915050565b60005b8381101561199657808201518184015260208101905061197b565b838111156119a5576000848401525b50505050565b6000601f19601f8301169050919050565b60006119c78261195c565b6119d18185611967565b93506119e1818560208601611978565b6119ea816119ab565b840191505092915050565b60006020820190508181036000830152611a0f81846119bc565b905092915050565b6000819050919050565b611a2a81611a17565b8114611a3557600080fd5b50565b600081359050611a4781611a21565b92915050565b600060208284031215611a6357611a62611897565b5b6000611a7184828501611a38565b91505092915050565b600073ffffffffffffffffffffffffffffffffffffffff82169050919050565b6000611aa582611a7a565b9050919050565b611ab581611a9a565b82525050565b6000602082019050611ad06000830184611aac565b92915050565b611adf81611a9a565b8114611aea57600080fd5b50565b600081359050611afc81611ad6565b92915050565b60008060408385031215611b1957611b18611897565b5b6000611b2785828601611aed565b9250506020611b3885828601611a38565b9150509250929050565b600080600060608486031215611b5b57611b5a611897565b5b6000611b6986828701611aed565b9350506020611b7a86828701611aed565b9250506040611b8b86828701611a38565b9150509250925092565b600080fd5b600080fd5b7f4e487b7100000000000000000000000000000000000000000000000000000000600052604160045260246000fd5b611bd7826119ab565b810181811067ffffffffffffffff82111715611bf657611bf5611b9f565b5b80604052505050565b6000611c0961188d565b9050611c158282611bce565b919050565b600067ffffffffffffffff821115611c3557611c34611b9f565b5b611c3e826119ab565b9050602081019050919050565b82818337600083830152505050565b6000611c6d611c6884611c1a565b611bff565b905082815260208101848484011115611c8957611c88611b9a565b5b611c94848285611c4b565b509392505050565b600082601f830112611cb157611cb0611b95565b5b8135611cc1848260208601611c5a565b91505092915050565b600060208284031215611ce057611cdf611897565b5b600082013567ffffffffffffffff811115611cfe57611cfd61189c565b5b611d0a84828501611c9c565b91505092915050565b600060208284031215611d2957611d28611897565b5b6000611d3784828501611aed565b91505092915050565b611d4981611a17565b82525050565b6000602082019050611d646000830184611d40565b92915050565b611d7381611926565b8114611d7e57600080fd5b50565b600081359050611d9081611d6a565b92915050565b60008060408385031215611dad57611dac611897565b5b6000611dbb85828601611aed565b9250506020611dcc85828601611d81565b9150509250929050565b600067ffffffffffffffff821115611df157611df0611b9f565b5b611dfa826119ab565b9050602081019050919050565b6000611e1a611e1584611dd6565b611bff565b905082815260208101848484011115611e3657611e35611b9a565b5b611e41848285611c4b565b509392505050565b600082601f830112611e5e57611e5d611b95565b5b8135611e6e848260208601611e07565b91505092915050565b60008060008060808587031215611e9157611e90611897565b5b6000611e9f87828801611aed565b9450506020611eb087828801611aed565b9350506040611ec187828801611a38565b925050606085013567ffffffffffffffff811115611ee257611ee161189c565b5b611eee87828801611e49565b91505092959194509250565b60008060408385031215611f1157611f10611897565b5b6000611f1f85828601611aed565b9250506020611f3085828601611aed565b9150509250929050565b7f4e487b7100000000000000000000000000000000000000000000000000000000600052602260045260246000fd5b60006002820490506001821680611f8157607f821691505b60208210811415611f9557611f94611f3a565b5b50919050565b7f4552433732313a20617070726f76656420717565727920666f72206e6f6e657860008201527f697374656e7420746f6b656e0000000000000000000000000000000000000000602082015250565b6000611ff7602c83611967565b915061200282611f9b565b604082019050919050565b6000602082019050818103600083015261202681611fea565b9050919050565b7f4552433732313a20617070726f76616c20746f2063757272656e74206f776e6560008201527f7200000000000000000000000000000000000000000000000000000000000000602082015250565b6000612089602183611967565b91506120948261202d565b604082019050919050565b600060208201905081810360008301526120b88161207c565b9050919050565b7f4552433732313a20617070726f76652063616c6c6572206973206e6f74206f7760008201527f6e6572206e6f7220617070726f76656420666f7220616c6c0000000000000000602082015250565b600061211b603883611967565b9150612126826120bf565b604082019050919050565b6000602082019050818103600083015261214a8161210e565b9050919050565b7f4552433732313a207472616e736665722063616c6c6572206973206e6f74206f60008201527f776e6572206e6f7220617070726f766564000000000000000000000000000000602082015250565b60006121ad603183611967565b91506121b882612151565b604082019050919050565b600060208201905081810360008301526121dc816121a0565b9050919050565b7f4552433732313a206f776e657220717565727920666f72206e6f6e657869737460008201527f656e7420746f6b656e0000000000000000000000000000000000000000000000602082015250565b600061223f602983611967565b915061224a826121e3565b604082019050919050565b6000602082019050818103600083015261226e81612232565b9050919050565b7f4552433732313a2062616c616e636520717565727920666f7220746865207a6560008201527f726f206164647265737300000000000000000000000000000000000000000000602082015250565b60006122d1602a83611967565b91506122dc82612275565b604082019050919050565b60006020820190508181036000830152612300816122c4565b9050919050565b7f4552433732313a20617070726f766520746f2063616c6c657200000000000000600082015250565b600061233d601983611967565b915061234882612307565b602082019050919050565b6000602082019050818103600083015261236c81612330565b9050919050565b7f4552433732314d657461646174613a2055524920717565727920666f72206e6f60008201527f6e6578697374656e7420746f6b656e0000000000000000000000000000000000602082015250565b60006123cf602f83611967565b91506123da82612373565b604082019050919050565b600060208201905081810360008301526123fe816123c2565b9050919050565b600081905092915050565b600061241b8261195c565b6124258185612405565b9350612435818560208601611978565b80840191505092915050565b600061244d8285612410565b91506124598284612410565b91508190509392505050565b7f4e487b7100000000000000000000000000000000000000000000000000000000600052601160045260246000fd5b600061249f82611a17565b91506124aa83611a17565b9250828210156124bd576124bc612465565b5b828203905092915050565b7f4552433732313a206f70657261746f7220717565727920666f72206e6f6e657860008201527f697374656e7420746f6b656e0000000000000000000000000000000000000000602082015250565b6000612524602c83611967565b915061252f826124c8565b604082019050919050565b6000602082019050818103600083015261255381612517565b9050919050565b7f4552433732313a207472616e73666572206f6620746f6b656e2074686174206960008201527f73206e6f74206f776e0000000000000000000000000000000000000000000000602082015250565b60006125b6602983611967565b91506125c18261255a565b604082019050919050565b600060208201905081810360008301526125e5816125a9565b9050919050565b7f4552433732313a207472616e7366657220746f20746865207a65726f2061646460008201527f7265737300000000000000000000000000000000000000000000000000000000602082015250565b6000612648602483611967565b9150612653826125ec565b604082019050919050565b600060208201905081810360008301526126778161263b565b9050919050565b600061268982611a17565b915061269483611a17565b9250827fffffffffffffffffffffffffffffffffffffffffffffffffffffffffffffffff038211156126c9576126c8612465565b5b828201905092915050565b7f4552433732313a207472616e7366657220746f206e6f6e20455243373231526560008201527f63656976657220696d706c656d656e7465720000000000000000000000000000602082015250565b6000612730603283611967565b915061273b826126d4565b604082019050919050565b6000602082019050818103600083015261275f81612723565b9050919050565b600061277182611a17565b91507fffffffffffffffffffffffffffffffffffffffffffffffffffffffffffffffff8214156127a4576127a3612465565b5b600182019050919050565b7f4e487b7100000000000000000000000000000000000000000000000000000000600052601260045260246000fd5b60006127e982611a17565b91506127f483611a17565b925082612804576128036127af565b5b828204905092915050565b600061281a82611a17565b915061282583611a17565b925082612835576128346127af565b5b828206905092915050565b7f4e487b7100000000000000000000000000000000000000000000000000000000600052603260045260246000fd5b7f4552433732313a206d696e7420746f20746865207a65726f2061646472657373600082015250565b60006128a5602083611967565b91506128b08261286f565b602082019050919050565b600060208201905081810360008301526128d481612898565b9050919050565b7f4552433732313a20746f6b656e20616c7265616479206d696e74656400000000600082015250565b6000612911601c83611967565b915061291c826128db565b602082019050919050565b6000602082019050818103600083015261294081612904565b9050919050565b600081519050919050565b600082825260208201905092915050565b600061296e82612947565b6129788185612952565b9350612988818560208601611978565b612991816119ab565b840191505092915050565b60006080820190506129b16000830187611aac565b6129be6020830186611aac565b6129cb6040830185611d40565b81810360608301526129dd8184612963565b905095945050505050565b6000815190506129f7816118cd565b92915050565b600060208284031215612a1357612a12611897565b5b6000612a21848285016129e8565b9150509291505056fea2646970667358221220c06381c90d1466428abe47a6213827c3d3a0ac308c059765b804e39b94a8a28564736f6c634300080a0033",
  "immutableReferences": {},
  "source": "// SPDX-License-Identifier: MIT\npragma solidity >=0.4.22 <0.9.0;\nimport \"@openzeppelin/contracts/token/ERC721/ERC721.sol\";\n\ncontract Cappu is ERC721 {\n    string[] public datas;\n    mapping(string => bool) _tokenExists;\n\n    constructor() ERC721(\"Cappu\", \"CAPU\") {}\n\n    string public myString = \"Hello World\";\n\n    function set(string memory x) public {\n        myString = x;\n    }\n\n    function mint(string memory data) public {\n        datas.push(data);\n        // uint256 _id = datas.push(data);\n        _mint(msg.sender, datas.length - 1);\n        // _colorExists[_color] = true;\n\n        // bytes memory dataBytes = bytes(data);\n        // uint256 tokenId = uint256(keccak256(dataBytes));\n        // _safeMint(to, tokenId, dataBytes);\n    }\n}\n",
  "sourcePath": "/home/amin/Desktop/study/thesis/cappu/contracts/Cappu.sol",
  "compiler": {
    "name": "solc",
    "version": "0.8.10+commit.fc410830.Emscripten.clang"
  },
  "schemaVersion": "3.4.3",
  "updatedAt": "2021-12-13T12:07:21.645Z",
  "networkType": "ethereum",
  "devdoc": {
    "kind": "dev",
    "methods": {
      "approve(address,uint256)": {
        "details": "See {IERC721-approve}."
      },
      "balanceOf(address)": {
        "details": "See {IERC721-balanceOf}."
      },
      "getApproved(uint256)": {
        "details": "See {IERC721-getApproved}."
      },
      "isApprovedForAll(address,address)": {
        "details": "See {IERC721-isApprovedForAll}."
      },
      "name()": {
        "details": "See {IERC721Metadata-name}."
      },
      "ownerOf(uint256)": {
        "details": "See {IERC721-ownerOf}."
      },
      "safeTransferFrom(address,address,uint256)": {
        "details": "See {IERC721-safeTransferFrom}."
      },
      "safeTransferFrom(address,address,uint256,bytes)": {
        "details": "See {IERC721-safeTransferFrom}."
      },
      "setApprovalForAll(address,bool)": {
        "details": "See {IERC721-setApprovalForAll}."
      },
      "supportsInterface(bytes4)": {
        "details": "See {IERC165-supportsInterface}."
      },
      "symbol()": {
        "details": "See {IERC721Metadata-symbol}."
      },
      "tokenURI(uint256)": {
        "details": "See {IERC721Metadata-tokenURI}."
      },
      "transferFrom(address,address,uint256)": {
        "details": "See {IERC721-transferFrom}."
      }
    },
    "version": 1
  },
  "userdoc": {
    "kind": "user",
    "methods": {},
    "version": 1
  }
}