{
  "contractName": "Cappu",
  "abi": [
    {
      "inputs": [],
      "stateMutability": "nonpayable",
      "type": "constructor"
    },
    {
      "anonymous": false,
      "inputs": [
        {
          "indexed": true,
          "internalType": "address",
          "name": "owner",
          "type": "address"
        },
        {
          "indexed": true,
          "internalType": "address",
          "name": "approved",
          "type": "address"
        },
        {
          "indexed": true,
          "internalType": "uint256",
          "name": "tokenId",
          "type": "uint256"
        }
      ],
      "name": "Approval",
      "type": "event"
    },
    {
      "anonymous": false,
      "inputs": [
        {
          "indexed": true,
          "internalType": "address",
          "name": "owner",
          "type": "address"
        },
        {
          "indexed": true,
          "internalType": "address",
          "name": "operator",
          "type": "address"
        },
        {
          "indexed": false,
          "internalType": "bool",
          "name": "approved",
          "type": "bool"
        }
      ],
      "name": "ApprovalForAll",
      "type": "event"
    },
    {
      "anonymous": false,
      "inputs": [
        {
          "indexed": true,
          "internalType": "address",
          "name": "from",
          "type": "address"
        },
        {
          "indexed": true,
          "internalType": "address",
          "name": "to",
          "type": "address"
        },
        {
          "indexed": true,
          "internalType": "uint256",
          "name": "tokenId",
          "type": "uint256"
        }
      ],
      "name": "Transfer",
      "type": "event"
    },
    {
      "inputs": [
        {
          "internalType": "address",
          "name": "to",
          "type": "address"
        },
        {
          "internalType": "uint256",
          "name": "tokenId",
          "type": "uint256"
        }
      ],
      "name": "approve",
      "outputs": [],
      "stateMutability": "nonpayable",
      "type": "function"
    },
    {
      "inputs": [
        {
          "internalType": "address",
          "name": "owner",
          "type": "address"
        }
      ],
      "name": "balanceOf",
      "outputs": [
        {
          "internalType": "uint256",
          "name": "",
          "type": "uint256"
        }
      ],
      "stateMutability": "view",
      "type": "function",
      "constant": true
    },
    {
      "inputs": [
        {
          "internalType": "uint256",
          "name": "tokenId",
          "type": "uint256"
        }
      ],
      "name": "getApproved",
      "outputs": [
        {
          "internalType": "address",
          "name": "",
          "type": "address"
        }
      ],
      "stateMutability": "view",
      "type": "function",
      "constant": true
    },
    {
      "inputs": [
        {
          "internalType": "address",
          "name": "owner",
          "type": "address"
        },
        {
          "internalType": "address",
          "name": "operator",
          "type": "address"
        }
      ],
      "name": "isApprovedForAll",
      "outputs": [
        {
          "internalType": "bool",
          "name": "",
          "type": "bool"
        }
      ],
      "stateMutability": "view",
      "type": "function",
      "constant": true
    },
    {
      "inputs": [],
      "name": "myString",
      "outputs": [
        {
          "internalType": "string",
          "name": "",
          "type": "string"
        }
      ],
      "stateMutability": "view",
      "type": "function",
      "constant": true
    },
    {
      "inputs": [],
      "name": "name",
      "outputs": [
        {
          "internalType": "string",
          "name": "",
          "type": "string"
        }
      ],
      "stateMutability": "view",
      "type": "function",
      "constant": true
    },
    {
      "inputs": [
        {
          "internalType": "uint256",
          "name": "tokenId",
          "type": "uint256"
        }
      ],
      "name": "ownerOf",
      "outputs": [
        {
          "internalType": "address",
          "name": "",
          "type": "address"
        }
      ],
      "stateMutability": "view",
      "type": "function",
      "constant": true
    },
    {
      "inputs": [
        {
          "internalType": "address",
          "name": "from",
          "type": "address"
        },
        {
          "internalType": "address",
          "name": "to",
          "type": "address"
        },
        {
          "internalType": "uint256",
          "name": "tokenId",
          "type": "uint256"
        }
      ],
      "name": "safeTransferFrom",
      "outputs": [],
      "stateMutability": "nonpayable",
      "type": "function"
    },
    {
      "inputs": [
        {
          "internalType": "address",
          "name": "from",
          "type": "address"
        },
        {
          "internalType": "address",
          "name": "to",
          "type": "address"
        },
        {
          "internalType": "uint256",
          "name": "tokenId",
          "type": "uint256"
        },
        {
          "internalType": "bytes",
          "name": "_data",
          "type": "bytes"
        }
      ],
      "name": "safeTransferFrom",
      "outputs": [],
      "stateMutability": "nonpayable",
      "type": "function"
    },
    {
      "inputs": [
        {
          "internalType": "address",
          "name": "operator",
          "type": "address"
        },
        {
          "internalType": "bool",
          "name": "approved",
          "type": "bool"
        }
      ],
      "name": "setApprovalForAll",
      "outputs": [],
      "stateMutability": "nonpayable",
      "type": "function"
    },
    {
      "inputs": [
        {
          "internalType": "bytes4",
          "name": "interfaceId",
          "type": "bytes4"
        }
      ],
      "name": "supportsInterface",
      "outputs": [
        {
          "internalType": "bool",
          "name": "",
          "type": "bool"
        }
      ],
      "stateMutability": "view",
      "type": "function",
      "constant": true
    },
    {
      "inputs": [],
      "name": "symbol",
      "outputs": [
        {
          "internalType": "string",
          "name": "",
          "type": "string"
        }
      ],
      "stateMutability": "view",
      "type": "function",
      "constant": true
    },
    {
      "inputs": [
        {
          "internalType": "uint256",
          "name": "tokenId",
          "type": "uint256"
        }
      ],
      "name": "tokenURI",
      "outputs": [
        {
          "internalType": "string",
          "name": "",
          "type": "string"
        }
      ],
      "stateMutability": "view",
      "type": "function",
      "constant": true
    },
    {
      "inputs": [
        {
          "internalType": "address",
          "name": "from",
          "type": "address"
        },
        {
          "internalType": "address",
          "name": "to",
          "type": "address"
        },
        {
          "internalType": "uint256",
          "name": "tokenId",
          "type": "uint256"
        }
      ],
      "name": "transferFrom",
      "outputs": [],
      "stateMutability": "nonpayable",
      "type": "function"
    },
    {
      "inputs": [
        {
          "internalType": "string",
          "name": "x",
          "type": "string"
        }
      ],
      "name": "set",
      "outputs": [],
      "stateMutability": "nonpayable",
      "type": "function"
    }
  ],
  "bytecode": "0x60806040526040518060400160405280600b81526020017f48656c6c6f20576f726c64000000000000000000000000000000000000000000815250600690805190602001906200005192919062000106565b503480156200005f57600080fd5b506040518060400160405280600581526020017f43617070750000000000000000000000000000000000000000000000000000008152506040518060400160405280600481526020017f43415055000000000000000000000000000000000000000000000000000000008152508160009080519060200190620000e492919062000106565b508060019080519060200190620000fd92919062000106565b5050506200021b565b8280546200011490620001e5565b90600052602060002090601f01602090048101928262000138576000855562000184565b82601f106200015357805160ff191683800117855562000184565b8280016001018555821562000184579182015b828111156200018357825182559160200191906001019062000166565b5b50905062000193919062000197565b5090565b5b80821115620001b257600081600090555060010162000198565b5090565b7f4e487b7100000000000000000000000000000000000000000000000000000000600052602260045260246000fd5b60006002820490506001821680620001fe57607f821691505b60208210811415620002155762000214620001b6565b5b50919050565b612652806200022b6000396000f3fe608060405234801561001057600080fd5b50600436106100f55760003560e01c80634ed3885e11610097578063a22cb46511610066578063a22cb46514610284578063b88d4fde146102a0578063c87b56dd146102bc578063e985e9c5146102ec576100f5565b80634ed3885e146101ea5780636352211e1461020657806370a082311461023657806395d89b4114610266576100f5565b8063095ea7b3116100d3578063095ea7b31461017857806323b872dd1461019457806342842e0e146101b0578063492bfa18146101cc576100f5565b806301ffc9a7146100fa57806306fdde031461012a578063081812fc14610148575b600080fd5b610114600480360381019061010f91906115c3565b61031c565b604051610121919061160b565b60405180910390f35b6101326103fe565b60405161013f91906116bf565b60405180910390f35b610162600480360381019061015d9190611717565b610490565b60405161016f9190611785565b60405180910390f35b610192600480360381019061018d91906117cc565b610515565b005b6101ae60048036038101906101a9919061180c565b61062d565b005b6101ca60048036038101906101c5919061180c565b61068d565b005b6101d46106ad565b6040516101e191906116bf565b60405180910390f35b61020460048036038101906101ff9190611994565b61073b565b005b610220600480360381019061021b9190611717565b610755565b60405161022d9190611785565b60405180910390f35b610250600480360381019061024b91906119dd565b610807565b60405161025d9190611a19565b60405180910390f35b61026e6108bf565b60405161027b91906116bf565b60405180910390f35b61029e60048036038101906102999190611a60565b610951565b005b6102ba60048036038101906102b59190611b41565b610ad2565b005b6102d660048036038101906102d19190611717565b610b34565b6040516102e391906116bf565b60405180910390f35b61030660048036038101906103019190611bc4565b610bdb565b604051610313919061160b565b60405180910390f35b60007f80ac58cd000000000000000000000000000000000000000000000000000000007bffffffffffffffffffffffffffffffffffffffffffffffffffffffff1916827bffffffffffffffffffffffffffffffffffffffffffffffffffffffff191614806103e757507f5b5e139f000000000000000000000000000000000000000000000000000000007bffffffffffffffffffffffffffffffffffffffffffffffffffffffff1916827bffffffffffffffffffffffffffffffffffffffffffffffffffffffff1916145b806103f757506103f682610c6f565b5b9050919050565b60606000805461040d90611c33565b80601f016020809104026020016040519081016040528092919081815260200182805461043990611c33565b80156104865780601f1061045b57610100808354040283529160200191610486565b820191906000526020600020905b81548152906001019060200180831161046957829003601f168201915b5050505050905090565b600061049b82610cd9565b6104da576040517f08c379a00000000000000000000000000000000000000000000000000000000081526004016104d190611cd7565b60405180910390fd5b6004600083815260200190815260200160002060009054906101000a900473ffffffffffffffffffffffffffffffffffffffff169050919050565b600061052082610755565b90508073ffffffffffffffffffffffffffffffffffffffff168373ffffffffffffffffffffffffffffffffffffffff161415610591576040517f08c379a000000000000000000000000000000000000000000000000000000000815260040161058890611d69565b60405180910390fd5b8073ffffffffffffffffffffffffffffffffffffffff166105b0610d45565b73ffffffffffffffffffffffffffffffffffffffff1614806105df57506105de816105d9610d45565b610bdb565b5b61061e576040517f08c379a000000000000000000000000000000000000000000000000000000000815260040161061590611dfb565b60405180910390fd5b6106288383610d4d565b505050565b61063e610638610d45565b82610e06565b61067d576040517f08c379a000000000000000000000000000000000000000000000000000000000815260040161067490611e8d565b60405180910390fd5b610688838383610ee4565b505050565b6106a883838360405180602001604052806000815250610ad2565b505050565b600680546106ba90611c33565b80601f01602080910402602001604051908101604052809291908181526020018280546106e690611c33565b80156107335780601f1061070857610100808354040283529160200191610733565b820191906000526020600020905b81548152906001019060200180831161071657829003601f168201915b505050505081565b80600690805190602001906107519291906114b4565b5050565b6000806002600084815260200190815260200160002060009054906101000a900473ffffffffffffffffffffffffffffffffffffffff169050600073ffffffffffffffffffffffffffffffffffffffff168173ffffffffffffffffffffffffffffffffffffffff1614156107fe576040517f08c379a00000000000000000000000000000000000000000000000000000000081526004016107f590611f1f565b60405180910390fd5b80915050919050565b60008073ffffffffffffffffffffffffffffffffffffffff168273ffffffffffffffffffffffffffffffffffffffff161415610878576040517f08c379a000000000000000000000000000000000000000000000000000000000815260040161086f90611fb1565b60405180910390fd5b600360008373ffffffffffffffffffffffffffffffffffffffff1673ffffffffffffffffffffffffffffffffffffffff168152602001908152602001600020549050919050565b6060600180546108ce90611c33565b80601f01602080910402602001604051908101604052809291908181526020018280546108fa90611c33565b80156109475780601f1061091c57610100808354040283529160200191610947565b820191906000526020600020905b81548152906001019060200180831161092a57829003601f168201915b5050505050905090565b610959610d45565b73ffffffffffffffffffffffffffffffffffffffff168273ffffffffffffffffffffffffffffffffffffffff1614156109c7576040517f08c379a00000000000000000000000000000000000000000000000000000000081526004016109be9061201d565b60405180910390fd5b80600560006109d4610d45565b73ffffffffffffffffffffffffffffffffffffffff1673ffffffffffffffffffffffffffffffffffffffff16815260200190815260200160002060008473ffffffffffffffffffffffffffffffffffffffff1673ffffffffffffffffffffffffffffffffffffffff16815260200190815260200160002060006101000a81548160ff0219169083151502179055508173ffffffffffffffffffffffffffffffffffffffff16610a81610d45565b73ffffffffffffffffffffffffffffffffffffffff167f17307eab39ab6107e8899845ad3d59bd9653f200f220920489ca2b5937696c3183604051610ac6919061160b565b60405180910390a35050565b610ae3610add610d45565b83610e06565b610b22576040517f08c379a0000000000000000000000000000000000000000000000000000000008152600401610b1990611e8d565b60405180910390fd5b610b2e84848484611140565b50505050565b6060610b3f82610cd9565b610b7e576040517f08c379a0000000000000000000000000000000000000000000000000000000008152600401610b75906120af565b60405180910390fd5b6000610b8861119c565b90506000815111610ba85760405180602001604052806000815250610bd3565b80610bb2846111b3565b604051602001610bc392919061210b565b6040516020818303038152906040525b915050919050565b6000600560008473ffffffffffffffffffffffffffffffffffffffff1673ffffffffffffffffffffffffffffffffffffffff16815260200190815260200160002060008373ffffffffffffffffffffffffffffffffffffffff1673ffffffffffffffffffffffffffffffffffffffff16815260200190815260200160002060009054906101000a900460ff16905092915050565b60007f01ffc9a7000000000000000000000000000000000000000000000000000000007bffffffffffffffffffffffffffffffffffffffffffffffffffffffff1916827bffffffffffffffffffffffffffffffffffffffffffffffffffffffff1916149050919050565b60008073ffffffffffffffffffffffffffffffffffffffff166002600084815260200190815260200160002060009054906101000a900473ffffffffffffffffffffffffffffffffffffffff1673ffffffffffffffffffffffffffffffffffffffff1614159050919050565b600033905090565b816004600083815260200190815260200160002060006101000a81548173ffffffffffffffffffffffffffffffffffffffff021916908373ffffffffffffffffffffffffffffffffffffffff160217905550808273ffffffffffffffffffffffffffffffffffffffff16610dc083610755565b73ffffffffffffffffffffffffffffffffffffffff167f8c5be1e5ebec7d5bd14f71427d1e84f3dd0314c0f7b2291e5b200ac8c7c3b92560405160405180910390a45050565b6000610e1182610cd9565b610e50576040517f08c379a0000000000000000000000000000000000000000000000000000000008152600401610e47906121a1565b60405180910390fd5b6000610e5b83610755565b90508073ffffffffffffffffffffffffffffffffffffffff168473ffffffffffffffffffffffffffffffffffffffff161480610eca57508373ffffffffffffffffffffffffffffffffffffffff16610eb284610490565b73ffffffffffffffffffffffffffffffffffffffff16145b80610edb5750610eda8185610bdb565b5b91505092915050565b8273ffffffffffffffffffffffffffffffffffffffff16610f0482610755565b73ffffffffffffffffffffffffffffffffffffffff1614610f5a576040517f08c379a0000000000000000000000000000000000000000000000000000000008152600401610f5190612233565b60405180910390fd5b600073ffffffffffffffffffffffffffffffffffffffff168273ffffffffffffffffffffffffffffffffffffffff161415610fca576040517f08c379a0000000000000000000000000000000000000000000000000000000008152600401610fc1906122c5565b60405180910390fd5b610fd5838383611314565b610fe0600082610d4d565b6001600360008573ffffffffffffffffffffffffffffffffffffffff1673ffffffffffffffffffffffffffffffffffffffff16815260200190815260200160002060008282546110309190612314565b925050819055506001600360008473ffffffffffffffffffffffffffffffffffffffff1673ffffffffffffffffffffffffffffffffffffffff16815260200190815260200160002060008282546110879190612348565b92505081905550816002600083815260200190815260200160002060006101000a81548173ffffffffffffffffffffffffffffffffffffffff021916908373ffffffffffffffffffffffffffffffffffffffff160217905550808273ffffffffffffffffffffffffffffffffffffffff168473ffffffffffffffffffffffffffffffffffffffff167fddf252ad1be2c89b69c2b068fc378daa952ba7f163c4a11628f55a4df523b3ef60405160405180910390a4505050565b61114b848484610ee4565b61115784848484611319565b611196576040517f08c379a000000000000000000000000000000000000000000000000000000000815260040161118d90612410565b60405180910390fd5b50505050565b606060405180602001604052806000815250905090565b606060008214156111fb576040518060400160405280600181526020017f3000000000000000000000000000000000000000000000000000000000000000815250905061130f565b600082905060005b6000821461122d57808061121690612430565b915050600a8261122691906124a8565b9150611203565b60008167ffffffffffffffff81111561124957611248611869565b5b6040519080825280601f01601f19166020018201604052801561127b5781602001600182028036833780820191505090505b5090505b60008514611308576001826112949190612314565b9150600a856112a391906124d9565b60306112af9190612348565b60f81b8183815181106112c5576112c461250a565b5b60200101907effffffffffffffffffffffffffffffffffffffffffffffffffffffffffffff1916908160001a905350600a8561130191906124a8565b945061127f565b8093505050505b919050565b505050565b600061133a8473ffffffffffffffffffffffffffffffffffffffff166114a1565b15611494578373ffffffffffffffffffffffffffffffffffffffff1663150b7a02611363610d45565b8786866040518563ffffffff1660e01b8152600401611385949392919061258e565b6020604051808303816000875af19250505080156113c157506040513d601f19601f820116820180604052508101906113be91906125ef565b60015b611444573d80600081146113f1576040519150601f19603f3d011682016040523d82523d6000602084013e6113f6565b606091505b5060008151141561143c576040517f08c379a000000000000000000000000000000000000000000000000000000000815260040161143390612410565b60405180910390fd5b805181602001fd5b63150b7a0260e01b7bffffffffffffffffffffffffffffffffffffffffffffffffffffffff1916817bffffffffffffffffffffffffffffffffffffffffffffffffffffffff191614915050611499565b600190505b949350505050565b600080823b905060008111915050919050565b8280546114c090611c33565b90600052602060002090601f0160209004810192826114e25760008555611529565b82601f106114fb57805160ff1916838001178555611529565b82800160010185558215611529579182015b8281111561152857825182559160200191906001019061150d565b5b509050611536919061153a565b5090565b5b8082111561155357600081600090555060010161153b565b5090565b6000604051905090565b600080fd5b600080fd5b60007fffffffff0000000000000000000000000000000000000000000000000000000082169050919050565b6115a08161156b565b81146115ab57600080fd5b50565b6000813590506115bd81611597565b92915050565b6000602082840312156115d9576115d8611561565b5b60006115e7848285016115ae565b91505092915050565b60008115159050919050565b611605816115f0565b82525050565b600060208201905061162060008301846115fc565b92915050565b600081519050919050565b600082825260208201905092915050565b60005b83811015611660578082015181840152602081019050611645565b8381111561166f576000848401525b50505050565b6000601f19601f8301169050919050565b600061169182611626565b61169b8185611631565b93506116ab818560208601611642565b6116b481611675565b840191505092915050565b600060208201905081810360008301526116d98184611686565b905092915050565b6000819050919050565b6116f4816116e1565b81146116ff57600080fd5b50565b600081359050611711816116eb565b92915050565b60006020828403121561172d5761172c611561565b5b600061173b84828501611702565b91505092915050565b600073ffffffffffffffffffffffffffffffffffffffff82169050919050565b600061176f82611744565b9050919050565b61177f81611764565b82525050565b600060208201905061179a6000830184611776565b92915050565b6117a981611764565b81146117b457600080fd5b50565b6000813590506117c6816117a0565b92915050565b600080604083850312156117e3576117e2611561565b5b60006117f1858286016117b7565b925050602061180285828601611702565b9150509250929050565b60008060006060848603121561182557611824611561565b5b6000611833868287016117b7565b9350506020611844868287016117b7565b925050604061185586828701611702565b9150509250925092565b600080fd5b600080fd5b7f4e487b7100000000000000000000000000000000000000000000000000000000600052604160045260246000fd5b6118a182611675565b810181811067ffffffffffffffff821117156118c0576118bf611869565b5b80604052505050565b60006118d3611557565b90506118df8282611898565b919050565b600067ffffffffffffffff8211156118ff576118fe611869565b5b61190882611675565b9050602081019050919050565b82818337600083830152505050565b6000611937611932846118e4565b6118c9565b90508281526020810184848401111561195357611952611864565b5b61195e848285611915565b509392505050565b600082601f83011261197b5761197a61185f565b5b813561198b848260208601611924565b91505092915050565b6000602082840312156119aa576119a9611561565b5b600082013567ffffffffffffffff8111156119c8576119c7611566565b5b6119d484828501611966565b91505092915050565b6000602082840312156119f3576119f2611561565b5b6000611a01848285016117b7565b91505092915050565b611a13816116e1565b82525050565b6000602082019050611a2e6000830184611a0a565b92915050565b611a3d816115f0565b8114611a4857600080fd5b50565b600081359050611a5a81611a34565b92915050565b60008060408385031215611a7757611a76611561565b5b6000611a85858286016117b7565b9250506020611a9685828601611a4b565b9150509250929050565b600067ffffffffffffffff821115611abb57611aba611869565b5b611ac482611675565b9050602081019050919050565b6000611ae4611adf84611aa0565b6118c9565b905082815260208101848484011115611b0057611aff611864565b5b611b0b848285611915565b509392505050565b600082601f830112611b2857611b2761185f565b5b8135611b38848260208601611ad1565b91505092915050565b60008060008060808587031215611b5b57611b5a611561565b5b6000611b69878288016117b7565b9450506020611b7a878288016117b7565b9350506040611b8b87828801611702565b925050606085013567ffffffffffffffff811115611bac57611bab611566565b5b611bb887828801611b13565b91505092959194509250565b60008060408385031215611bdb57611bda611561565b5b6000611be9858286016117b7565b9250506020611bfa858286016117b7565b9150509250929050565b7f4e487b7100000000000000000000000000000000000000000000000000000000600052602260045260246000fd5b60006002820490506001821680611c4b57607f821691505b60208210811415611c5f57611c5e611c04565b5b50919050565b7f4552433732313a20617070726f76656420717565727920666f72206e6f6e657860008201527f697374656e7420746f6b656e0000000000000000000000000000000000000000602082015250565b6000611cc1602c83611631565b9150611ccc82611c65565b604082019050919050565b60006020820190508181036000830152611cf081611cb4565b9050919050565b7f4552433732313a20617070726f76616c20746f2063757272656e74206f776e6560008201527f7200000000000000000000000000000000000000000000000000000000000000602082015250565b6000611d53602183611631565b9150611d5e82611cf7565b604082019050919050565b60006020820190508181036000830152611d8281611d46565b9050919050565b7f4552433732313a20617070726f76652063616c6c6572206973206e6f74206f7760008201527f6e6572206e6f7220617070726f76656420666f7220616c6c0000000000000000602082015250565b6000611de5603883611631565b9150611df082611d89565b604082019050919050565b60006020820190508181036000830152611e1481611dd8565b9050919050565b7f4552433732313a207472616e736665722063616c6c6572206973206e6f74206f60008201527f776e6572206e6f7220617070726f766564000000000000000000000000000000602082015250565b6000611e77603183611631565b9150611e8282611e1b565b604082019050919050565b60006020820190508181036000830152611ea681611e6a565b9050919050565b7f4552433732313a206f776e657220717565727920666f72206e6f6e657869737460008201527f656e7420746f6b656e0000000000000000000000000000000000000000000000602082015250565b6000611f09602983611631565b9150611f1482611ead565b604082019050919050565b60006020820190508181036000830152611f3881611efc565b9050919050565b7f4552433732313a2062616c616e636520717565727920666f7220746865207a6560008201527f726f206164647265737300000000000000000000000000000000000000000000602082015250565b6000611f9b602a83611631565b9150611fa682611f3f565b604082019050919050565b60006020820190508181036000830152611fca81611f8e565b9050919050565b7f4552433732313a20617070726f766520746f2063616c6c657200000000000000600082015250565b6000612007601983611631565b915061201282611fd1565b602082019050919050565b6000602082019050818103600083015261203681611ffa565b9050919050565b7f4552433732314d657461646174613a2055524920717565727920666f72206e6f60008201527f6e6578697374656e7420746f6b656e0000000000000000000000000000000000602082015250565b6000612099602f83611631565b91506120a48261203d565b604082019050919050565b600060208201905081810360008301526120c88161208c565b9050919050565b600081905092915050565b60006120e582611626565b6120ef81856120cf565b93506120ff818560208601611642565b80840191505092915050565b600061211782856120da565b915061212382846120da565b91508190509392505050565b7f4552433732313a206f70657261746f7220717565727920666f72206e6f6e657860008201527f697374656e7420746f6b656e0000000000000000000000000000000000000000602082015250565b600061218b602c83611631565b91506121968261212f565b604082019050919050565b600060208201905081810360008301526121ba8161217e565b9050919050565b7f4552433732313a207472616e73666572206f6620746f6b656e2074686174206960008201527f73206e6f74206f776e0000000000000000000000000000000000000000000000602082015250565b600061221d602983611631565b9150612228826121c1565b604082019050919050565b6000602082019050818103600083015261224c81612210565b9050919050565b7f4552433732313a207472616e7366657220746f20746865207a65726f2061646460008201527f7265737300000000000000000000000000000000000000000000000000000000602082015250565b60006122af602483611631565b91506122ba82612253565b604082019050919050565b600060208201905081810360008301526122de816122a2565b9050919050565b7f4e487b7100000000000000000000000000000000000000000000000000000000600052601160045260246000fd5b600061231f826116e1565b915061232a836116e1565b92508282101561233d5761233c6122e5565b5b828203905092915050565b6000612353826116e1565b915061235e836116e1565b9250827fffffffffffffffffffffffffffffffffffffffffffffffffffffffffffffffff03821115612393576123926122e5565b5b828201905092915050565b7f4552433732313a207472616e7366657220746f206e6f6e20455243373231526560008201527f63656976657220696d706c656d656e7465720000000000000000000000000000602082015250565b60006123fa603283611631565b91506124058261239e565b604082019050919050565b60006020820190508181036000830152612429816123ed565b9050919050565b600061243b826116e1565b91507fffffffffffffffffffffffffffffffffffffffffffffffffffffffffffffffff82141561246e5761246d6122e5565b5b600182019050919050565b7f4e487b7100000000000000000000000000000000000000000000000000000000600052601260045260246000fd5b60006124b3826116e1565b91506124be836116e1565b9250826124ce576124cd612479565b5b828204905092915050565b60006124e4826116e1565b91506124ef836116e1565b9250826124ff576124fe612479565b5b828206905092915050565b7f4e487b7100000000000000000000000000000000000000000000000000000000600052603260045260246000fd5b600081519050919050565b600082825260208201905092915050565b600061256082612539565b61256a8185612544565b935061257a818560208601611642565b61258381611675565b840191505092915050565b60006080820190506125a36000830187611776565b6125b06020830186611776565b6125bd6040830185611a0a565b81810360608301526125cf8184612555565b905095945050505050565b6000815190506125e981611597565b92915050565b60006020828403121561260557612604611561565b5b6000612613848285016125da565b9150509291505056fea2646970667358221220f2ecbfb244c3e0fa88f99018c7a29322b9f0ac876e8d4fdc51635341b15e5e9564736f6c634300080a0033",
  "immutableReferences": {},
  "source": "// SPDX-License-Identifier: MIT\npragma solidity >=0.4.22 <0.9.0;\nimport \"@openzeppelin/contracts/token/ERC721/ERC721.sol\";\n\ncontract Cappu is ERC721 {\n    constructor() ERC721(\"Cappu\", \"CAPU\") {}\n\n    string public myString = \"Hello World\";\n\n    function set(string memory x) public {\n        myString = x;\n    }\n}\n",
  "sourcePath": "/home/amin/Desktop/study/thesis/cappu/contracts/Cappu.sol",
  "compiler": {
    "name": "solc",
    "version": "0.8.10+commit.fc410830.Emscripten.clang"
  },
  "schemaVersion": "3.4.3",
  "updatedAt": "2021-11-22T11:52:18.657Z",
  "networkType": "ethereum",
  "devdoc": {
    "kind": "dev",
    "methods": {
      "approve(address,uint256)": {
        "details": "See {IERC721-approve}."
      },
      "balanceOf(address)": {
        "details": "See {IERC721-balanceOf}."
      },
      "getApproved(uint256)": {
        "details": "See {IERC721-getApproved}."
      },
      "isApprovedForAll(address,address)": {
        "details": "See {IERC721-isApprovedForAll}."
      },
      "name()": {
        "details": "See {IERC721Metadata-name}."
      },
      "ownerOf(uint256)": {
        "details": "See {IERC721-ownerOf}."
      },
      "safeTransferFrom(address,address,uint256)": {
        "details": "See {IERC721-safeTransferFrom}."
      },
      "safeTransferFrom(address,address,uint256,bytes)": {
        "details": "See {IERC721-safeTransferFrom}."
      },
      "setApprovalForAll(address,bool)": {
        "details": "See {IERC721-setApprovalForAll}."
      },
      "supportsInterface(bytes4)": {
        "details": "See {IERC165-supportsInterface}."
      },
      "symbol()": {
        "details": "See {IERC721Metadata-symbol}."
      },
      "tokenURI(uint256)": {
        "details": "See {IERC721Metadata-tokenURI}."
      },
      "transferFrom(address,address,uint256)": {
        "details": "See {IERC721-transferFrom}."
      }
    },
    "version": 1
  },
  "userdoc": {
    "kind": "user",
    "methods": {},
    "version": 1
  }
}